{
  "_format": "hh-sol-artifact-1",
  "contractName": "FlashLiquidator",
  "sourceName": "contracts/FlashLiquidator.sol",
  "abi": [
    {
      "inputs": [
        {
          "internalType": "address",
          "name": "_addressesProvider",
          "type": "address"
        }
      ],
      "stateMutability": "nonpayable",
      "type": "constructor"
    },
    {
      "inputs": [
        {
          "internalType": "address",
          "name": "token",
          "type": "address"
        }
      ],
      "name": "SafeERC20FailedOperation",
      "type": "error"
    },
    {
      "anonymous": false,
      "inputs": [
        {
          "indexed": true,
          "internalType": "address",
          "name": "user",
          "type": "address"
        },
        {
          "indexed": false,
          "internalType": "address",
          "name": "debtAsset",
          "type": "address"
        },
        {
          "indexed": false,
          "internalType": "address",
          "name": "collateralAsset",
          "type": "address"
        },
        {
          "indexed": false,
          "internalType": "uint256",
          "name": "debtCovered",
          "type": "uint256"
        },
        {
          "indexed": false,
          "internalType": "uint256",
          "name": "collateralReceived",
          "type": "uint256"
        },
        {
          "indexed": false,
          "internalType": "uint256",
          "name": "profit",
          "type": "uint256"
        }
      ],
      "name": "LiquidationExecuted",
      "type": "event"
    },
    {
      "anonymous": false,
      "inputs": [
        {
          "indexed": true,
          "internalType": "address",
          "name": "token",
          "type": "address"
        },
        {
          "indexed": false,
          "internalType": "uint256",
          "name": "amount",
          "type": "uint256"
        }
      ],
      "name": "Withdrawn",
      "type": "event"
    },
    {
      "inputs": [],
      "name": "ADDRESSES_PROVIDER",
      "outputs": [
        {
          "internalType": "contract IPoolAddressesProvider",
          "name": "",
          "type": "address"
        }
      ],
      "stateMutability": "view",
      "type": "function"
    },
    {
      "inputs": [],
      "name": "POOL",
      "outputs": [
        {
          "internalType": "contract IPool",
          "name": "",
          "type": "address"
        }
      ],
      "stateMutability": "view",
      "type": "function"
    },
    {
      "inputs": [],
      "name": "SWAP_ROUTER",
      "outputs": [
        {
          "internalType": "address",
          "name": "",
          "type": "address"
        }
      ],
      "stateMutability": "view",
      "type": "function"
    },
    {
      "inputs": [
        {
          "internalType": "address",
          "name": "user",
          "type": "address"
        },
        {
          "internalType": "address",
          "name": "debtAsset",
          "type": "address"
        },
        {
          "internalType": "address",
          "name": "collateralAsset",
          "type": "address"
        },
        {
          "internalType": "uint256",
          "name": "debtToCover",
          "type": "uint256"
        },
        {
          "internalType": "uint24",
          "name": "poolFee",
          "type": "uint24"
        }
      ],
      "name": "executeLiquidation",
      "outputs": [],
      "stateMutability": "nonpayable",
      "type": "function"
    },
    {
      "inputs": [
        {
          "internalType": "address",
          "name": "asset",
          "type": "address"
        },
        {
          "internalType": "uint256",
          "name": "amount",
          "type": "uint256"
        },
        {
          "internalType": "uint256",
          "name": "premium",
          "type": "uint256"
        },
        {
          "internalType": "address",
          "name": "initiator",
          "type": "address"
        },
        {
          "internalType": "bytes",
          "name": "params",
          "type": "bytes"
        }
      ],
      "name": "executeOperation",
      "outputs": [
        {
          "internalType": "bool",
          "name": "",
          "type": "bool"
        }
      ],
      "stateMutability": "nonpayable",
      "type": "function"
    },
    {
      "inputs": [],
      "name": "owner",
      "outputs": [
        {
          "internalType": "address",
          "name": "",
          "type": "address"
        }
      ],
      "stateMutability": "view",
      "type": "function"
    },
    {
      "inputs": [
        {
          "internalType": "address",
          "name": "token",
          "type": "address"
        }
      ],
      "name": "withdraw",
      "outputs": [],
      "stateMutability": "nonpayable",
      "type": "function"
    },
    {
      "stateMutability": "payable",
      "type": "receive"
    }
  ],
  "bytecode": "0x60e060405234801561001057600080fd5b5060405161116638038061116683398101604081905261002f916100b3565b336080526001600160a01b03811660a08190526040805163026b1d5f60e01b8152905163026b1d5f916004808201926020929091908290030181865afa15801561007d573d6000803e3d6000fd5b505050506040513d601f19601f820116820180604052508101906100a191906100b3565b6001600160a01b031660c052506100e3565b6000602082840312156100c557600080fd5b81516001600160a01b03811681146100dc57600080fd5b9392505050565b60805160a05160c05161101661015060003960008181610135015281816101e0015281816102af0152818161031c015281816104ba015261098901526000609201526000818161016901528181610507015281816105b4015281816106c7015261073e01526110166000f3fe6080604052600436106100745760003560e01c80637535d2461161004e5780637535d246146101235780638da5cb5b14610157578063c04aabcf1461018b578063c6005893146101ab57600080fd5b80630542975c146100805780631b11d0ff146100d157806351cff8d91461010157600080fd5b3661007b57005b600080fd5b34801561008c57600080fd5b506100b47f000000000000000000000000000000000000000000000000000000000000000081565b6040516001600160a01b0390911681526020015b60405180910390f35b3480156100dd57600080fd5b506100f16100ec366004610d45565b6101d3565b60405190151581526020016100c8565b34801561010d57600080fd5b5061012161011c366004610deb565b6105a9565b005b34801561012f57600080fd5b506100b47f000000000000000000000000000000000000000000000000000000000000000081565b34801561016357600080fd5b506100b47f000000000000000000000000000000000000000000000000000000000000000081565b34801561019757600080fd5b506101216101a6366004610e20565b610733565b3480156101b757600080fd5b506100b473e592427a0aece92de3edee1f18e0157c0586156481565b6000336001600160a01b037f0000000000000000000000000000000000000000000000000000000000000000161461023e5760405162461bcd60e51b815260206004820152600960248201526813db9b1e481c1bdbdb60ba1b60448201526064015b60405180910390fd5b6001600160a01b038416301461028a5760405162461bcd60e51b815260206004820152601160248201527024b73b30b634b21034b734ba34b0ba37b960791b6044820152606401610235565b600061029883850185610e7e565b60208101519091506102d4906001600160a01b03167f000000000000000000000000000000000000000000000000000000000000000089610a01565b60408181015160208301518351925162a718a960e01b81526001600160a01b0392831660048201529082166024820152918116604483015260648201899052600060848301527f0000000000000000000000000000000000000000000000000000000000000000169062a718a99060a401600060405180830381600087803b15801561035f57600080fd5b505af1158015610373573d6000803e3d6000fd5b5050505060408181015190516370a0823160e01b81523060048201526000916001600160a01b0316906370a0823190602401602060405180830381865afa1580156103c2573d6000803e3d6000fd5b505050506040513d601f19601f820116820180604052508101906103e69190610f13565b9050600081116104315760405162461bcd60e51b8152602060048201526016602482015275139bc818dbdb1b185d195c985b081c9958d95a5d995960521b6044820152606401610235565b600061044b83604001518460200151848660800151610ac5565b90506000610459898b610f42565b9050808210156104ab5760405162461bcd60e51b815260206004820152601f60248201527f556e70726f66697461626c653a207377617020696e73756666696369656e74006044820152606401610235565b6104df6001600160a01b038c167f000000000000000000000000000000000000000000000000000000000000000083610a01565b60006104eb8284610f55565b9050801561052c57602085015161052c906001600160a01b03167f000000000000000000000000000000000000000000000000000000000000000083610c31565b845160208087015160408089015181516001600160a01b039384168152908316938101939093528281018f90526060830188905260808301859052519216917f77dabbf924a6f11f55b1042aa168a422b93d6d1b6db5d812f2c479c16a512da79181900360a00190a26001955050505050505b9695505050505050565b336001600160a01b037f0000000000000000000000000000000000000000000000000000000000000000161461060e5760405162461bcd60e51b815260206004820152600a60248201526927b7363c9037bbb732b960b11b6044820152606401610235565b6040516370a0823160e01b81523060048201526000906001600160a01b038316906370a0823190602401602060405180830381865afa158015610655573d6000803e3d6000fd5b505050506040513d601f19601f820116820180604052508101906106799190610f13565b9050600081116106b85760405162461bcd60e51b815260206004820152600a6024820152694e6f2062616c616e636560b01b6044820152606401610235565b6106ec6001600160a01b0383167f000000000000000000000000000000000000000000000000000000000000000083610c31565b816001600160a01b03167f7084f5476618d8e60b11ef0d7d3f06914655adb8793e28ff7f018d4c76d505d58260405161072791815260200190565b60405180910390a25050565b336001600160a01b037f000000000000000000000000000000000000000000000000000000000000000016146107985760405162461bcd60e51b815260206004820152600a60248201526927b7363c9037bbb732b960b11b6044820152606401610235565b6001600160a01b0385166107dd5760405162461bcd60e51b815260206004820152600c60248201526b24b73b30b634b2103ab9b2b960a11b6044820152606401610235565b6001600160a01b0384166108285760405162461bcd60e51b8152602060048201526012602482015271125b9d985b1a59081919589d08185cdcd95d60721b6044820152606401610235565b6001600160a01b03831661087e5760405162461bcd60e51b815260206004820152601860248201527f496e76616c696420636f6c6c61746572616c20617373657400000000000000006044820152606401610235565b600082116108c45760405162461bcd60e51b8152602060048201526013602482015272125b9d985b1a59081919589d08185b5bdd5b9d606a1b6044820152606401610235565b60006040518060a00160405280876001600160a01b03168152602001866001600160a01b03168152602001856001600160a01b031681526020018481526020018362ffffff16815250604051602001610962919081516001600160a01b039081168252602080840151821690830152604080840151909116908201526060808301519082015260809182015162ffffff169181019190915260a00190565b60408051601f19818403018152908290526310ac2ddf60e21b825291506001600160a01b037f000000000000000000000000000000000000000000000000000000000000000016906342b0b77c906109c7903090899088908790600090600401610f68565b600060405180830381600087803b1580156109e157600080fd5b505af11580156109f5573d6000803e3d6000fd5b50505050505050505050565b604080516001600160a01b038416602482015260448082018490528251808303909101815260649091019091526020810180516001600160e01b031663095ea7b360e01b179052610a528482610c67565b610abf576040516001600160a01b03848116602483015260006044830152610ab591869182169063095ea7b3906064015b604051602081830303815290604052915060e01b6020820180516001600160e01b038381831617835250505050610cb8565b610abf8482610cb8565b50505050565b600073e592427a0aece92de3edee1f18e0157c05861564610af06001600160a01b0387168286610a01565b60408051610100810182526001600160a01b0388811682528781166020830190815262ffffff8781168486019081523060608601908152426080870190815260a087018c8152600060c0890181815260e08a01918252995163414bf38960e01b815289518916600482015296518816602488015293519094166044860152905185166064850152516084840152905160a4830152935160c48201529251811660e484015290919083169063414bf38990610104016020604051808303816000875af1158015610bc3573d6000803e3d6000fd5b505050506040513d601f19601f82011682018060405250810190610be79190610f13565b925060008311610c275760405162461bcd60e51b815260206004820152600b60248201526a14ddd85c0819985a5b195960aa1b6044820152606401610235565b5050949350505050565b6040516001600160a01b03838116602483015260448201839052610c6291859182169063a9059cbb90606401610a83565b505050565b6000806000806020600086516020880160008a5af192503d91506000519050828015610cac57508115610c9d5780600114610cac565b6000866001600160a01b03163b115b93505050505b92915050565b600080602060008451602086016000885af180610cdb576040513d6000823e3d81fd5b50506000513d91508115610cf3578060011415610d00565b6001600160a01b0384163b155b15610abf57604051635274afe760e01b81526001600160a01b0385166004820152602401610235565b80356001600160a01b0381168114610d4057600080fd5b919050565b60008060008060008060a08789031215610d5e57600080fd5b610d6787610d29565b95506020870135945060408701359350610d8360608801610d29565b9250608087013567ffffffffffffffff80821115610da057600080fd5b818901915089601f830112610db457600080fd5b813581811115610dc357600080fd5b8a6020828501011115610dd557600080fd5b6020830194508093505050509295509295509295565b600060208284031215610dfd57600080fd5b610e0682610d29565b9392505050565b803562ffffff81168114610d4057600080fd5b600080600080600060a08688031215610e3857600080fd5b610e4186610d29565b9450610e4f60208701610d29565b9350610e5d60408701610d29565b925060608601359150610e7260808701610e0d565b90509295509295909350565b600060a08284031215610e9057600080fd5b60405160a0810181811067ffffffffffffffff82111715610ec157634e487b7160e01b600052604160045260246000fd5b604052610ecd83610d29565b8152610edb60208401610d29565b6020820152610eec60408401610d29565b604082015260608301356060820152610f0760808401610e0d565b60808201529392505050565b600060208284031215610f2557600080fd5b5051919050565b634e487b7160e01b600052601160045260246000fd5b80820180821115610cb257610cb2610f2c565b81810381811115610cb257610cb2610f2c565b600060018060a01b03808816835260208188168185015286604085015260a06060850152855191508160a085015260005b82811015610fb55786810182015185820160c001528101610f99565b5050600060c0828501015260c0601f19601f83011684010191505061059f608083018461ffff16905256fea26469706673582212206d2672476778062af7a99ea06262b15da4f157e27eea847119d31a09ec7d0de964736f6c63430008140033",
  "linkReferences": {},
  "deployedLinkReferences": {}
}